:100000000C9436000C94C4070C94C4070C94C407D9
:100010000C94C4070C94C4070C94C4070C94C40734
:100020000C94C4070C94C4070C94C4070C94C40724
:100030000C94C4070C94C4070C94C4070C94C40714
:100040000C94C4070C94C4070C94C4070C94C40704
:100050000C94C4074C019101560160016A017401BE
:100060007E01880100600074000F960011241FBEFD
:10007000CFE5D8E0DEBFCDBFE4E6F0E040E017C05A
:10008000B591A59135912591059107FD0CC09591EC
:100090008591EF01F92FE82F05900D92A217B30774
:1000A000D9F7FE0104C01D92A217B307E1F7EB36A2
:1000B000F40731F70E947D000C947107F894FFCF8C
:1000C0006C696768742070657263656E74616765DA
:1000D0003A20007468726573686F6C643A2000653A
:0F00E0006E746572207468726573686F6C64006B
:0A00EF0002050403020307060503DF
:1000FA00CF93DF93CDB7DEB7E3970FB6F894DEBFA1
:10010A000FBECDBF0E94B9040E9447070E949B07F9
:10011A000E94950520EC30E040E083E1F901DE0120
:10012A001196742F0E94640723ED30E040E08CE0C2
:10013A00F901DE015496742F0E9464072FED30E016
:10014A0040E080E1F901DE019096742F0E94640775
:10015A0019AA18AA8FEF8AAB8BABCE0180960E94A0
:10016A00570760E081E00E94B70604C0CE01C2963C
:10017A000E949B018AA98F3FC9F30E948E0204C084
:10018A00CE01C3960E949B018BA98F3FC9F30E949F
:10019A008E028AA990E0C0979BA9880F182F110F89
:1001AA00110F810F182F190F10532FEF89E698E1BD
:1001BA00215080409040E1F700C00000CE01C09677
:1001CA000E9462060E947C07CE0101960E94570790
:1001DA0068A979A980E090E00E948F0660E081E03A
:1001EA000E94B706CE0144960E945707612F70E01D
:1001FA0080E090E00E948F06812F90E028A939A91B
:10020A008217930718F40E94A70702C00E94A10749
:10021A002FEF83ED90E3215080409040E1F700C03A
:04022A000000CCCF35
:10022E00E92F96B19F7796B9613059F018F0633087
:10023E0079F014C097B19F7B97B997B19F7797B913
:10024E000DC097B1906497B997B19F7797B906C0D3
:10025E0097B1906497B997B1906897B9882319F0C0
:10026E00813029F007C087B18F7D87B903C087B170
:10027E00806287B98E2F90E08830910508F04AC0D1
:10028E00FC01E65DFF4F0C94B30786B18E7F86B9F5
:10029E0086B18D7F86B986B18B7F86B93BC086B11C
:1002AE008E7F86B986B1826086B986B18B7F86B91C
:1002BE0031C086B1816086B986B1826086B986B159
:1002CE008B7F86B927C086B18E7F86B986B18D7F2A
:1002DE0086B986B1846086B91DC086B1816086B943
:1002EE0086B18D7F86B986B1846086B913C086B11A
:1002FE008E7F86B986B1826086B986B1846086B9F2
:10030E0009C086B1816086B986B1826086B986B130
:10031E00846086B986B1877F86B986B18F7D86B9AE
:08032E0086B1806886B90895CC
:10033600CF92DF92EF92FF920F931F93CF93DF93AB
:100346000F92CDB7DEB77C018FEFF701808310E007
:100356005EC0101312C0802F90E00196092E000C8B
:10036600AA0B81519F4FAF4FFC016491A7FD60819D
:1003760040E082E00E94E20311C0802F90E00196E7
:10038600092E000CAA0B81519F4FAF4FFC016491BF
:10039600A7FD608141E082E00E94E2030F5F01C099
:1003A60000E00430B0F200E02FC081E08983C02E67
:1003B600D12CC6010696092E000CAA0B81519F4F1F
:1003C600AF4FFC016491A7FD6081AE014F5F5F4FA7
:1003D60083E00E94CB058FE59AEE0197F1F700C006
:1003E6000000898181110FC0812F90E0880F991F2D
:1003F600880F991F805A9F4FFC01EC0DFD1D8081CF
:10040600F701808303C00F5F043078F21F5F14305A
:1004160038F20F90DF91CF911F910F91FF90EF90DF
:06042600DF90CF90089565
:10042C00CF93C82F482F441F4427441F64E081E01A
:10043C000E94E203C6FB442740F962E081E00E947F
:10044C00E203C5FB442740F961E081E00E94E2032E
:10045C00C4FB442740F960E081E00E94E20340E0E5
:10046C0063E080E00E94E20341E062E080E00E94F1
:10047C00E2038FE39FE10197F1F700C0000040E039
:10048C0062E080E00E94E2038FE39FE10197F1F7C5
:10049C0000C00000C3FB442740F964E081E00E94E7
:1004AC00E203C2FB442740F962E081E00E94E203D0
:1004BC00C1FB442740F961E081E00E94E2034C2F2C
:1004CC00417060E081E00E94E20340E063E080E084
:1004DC000E94E20341E062E080E00E94E2038FE3CD
:1004EC009FE10197F1F700C0000040E062E080E07E
:1004FC000E94E2038FE39FE10197F1F700C0000037
:10050C008FE99FE00197F1F700C00000CF910895AB
:10051C00CF93C82F482F441F4427441F64E081E029
:10052C000E94E203C6FB442740F962E081E00E948E
:10053C00E203C5FB442740F961E081E00E94E2033D
:10054C00C4FB442740F960E081E00E94E20341E0F3
:10055C0063E080E00E94E20341E062E080E00E9400
:10056C00E2038FE39FE10197F1F700C0000040E048
:10057C0062E080E00E94E2038FE39FE10197F1F7D4
:10058C0000C00000C3FB442740F964E081E00E94F6
:10059C00E203C2FB442740F962E081E00E94E203DF
:1005AC00C1FB442740F961E081E00E94E2034C2F3B
:1005BC00417060E081E00E94E20341E063E080E092
:1005CC000E94E20341E062E080E00E94E2038FE3DC
:1005DC009FE10197F1F700C0000040E062E080E08D
:1005EC000E94E2038FE39FE10197F1F700C0000046
:1005FC008FE99FE00197F1F700C00000CF910895BB
:10060C0010C00E948D0758F00E94860740F029F414
:10061C005F3F29F00C94AD0751110C9495070C9485
:10062C00C1070E94D90668F39923B1F3552391F3BE
:10063C00951B550BBB27AA2762177307840738F045
:10064C009F5F5F4F220F331F441FAA1FA9F335D0A2
:10065C000E2E3AF0E0E832D091505040E695001C56
:10066C00CAF72BD0FE2F29D0660F771F881FBB1F10
:10067C00261737074807AB07B0E809F0BB0B802DEE
:10068C00BF01FF2793585F4F3AF09E3F510578F01A
:10069C000C94AD070C9495075F3FE4F3983ED4F3AC
:1006AC00869577956795B795F7959F5FC9F7880FEE
:1006BC00911D9695879597F90895E1E0660F771F40
:1006CC00881FBB1F621773078407BA0720F0621BD1
:0E06DC00730B840BBA0BEE1F88F7E0950895A0
:1006EA00813001F130F08230B1F1833009F44CC02D
:1006FA00089541110CC02AB381E090E002C0880F2E
:10070A00991F6A95E2F7809582238ABB08952AB3D6
:10071A0081E090E002C0880F991F6A95E2F7822B68
:10072A008ABB089541110CC027B381E090E002C052
:10073A00880F991F6A95E2F78095822387BB0895EF
:10074A0027B381E090E002C0880F991F6A95E2F70B
:10075A00822B87BB089541110CC024B381E090E03D
:10076A0002C0880F991F6A95E2F78095822384BB9D
:10077A00089524B381E090E002C0880F991F6A951A
:10078A00E2F7822B84BB089541110CC021B381E0AA
:10079A0090E002C0880F991F6A95E2F7809582233C
:1007AA0081BB089521B381E090E002C0880F991FB0
:0A07BA006A95E2F7822B81BB0895D7
:1007C400813001F130F08230B1F1833009F44CC052
:1007D400089541110CC02BB381E090E002C0880F52
:1007E400991F6A95E2F7809582238BBB08952BB3FA
:1007F40081E090E002C0880F991F6A95E2F7822B8E
:100804008BBB089541110CC028B381E090E002C075
:10081400880F991F6A95E2F78095822388BB089513
:1008240028B381E090E002C0880F991F6A95E2F72F
:10083400822B88BB089541110CC025B381E090E060
:1008440002C0880F991F6A95E2F78095822385BBC1
:10085400089525B381E090E002C0880F991F6A953E
:10086400E2F7822B85BB089541110CC022B381E0CD
:1008740090E002C0880F991F6A95E2F78095822361
:1008840082BB089522B381E090E002C0880F991FD3
:0A0894006A95E2F7822B82BB0895FB
:10089E000FC00E94860738F00E948D0720F0952326
:1008AE0011F00C94AD070C94C10711240C9495070C
:1008BE000E94D90670F3959FC1F3950F50E0551F16
:1008CE00629FF001729FBB27F00DB11D639FAA2797
:1008DE00F00DB11DAA1F649F6627B00DA11D661FE6
:1008EE00829F2227B00DA11D621F739FB00DA11D07
:1008FE00621F839FA00D611D221F749F3327A00DC1
:10090E00611D231F849F600D211D822F762F6A2F5C
:10091E0011249F5750409AF0F1F088234AF0EE0FC1
:10092E00FF1FBB1F661F771F881F91505040A9F7EE
:10093E009E3F510580F00C94AD070C9495075F3FD8
:10094E00E4F3983ED4F3869577956795B795F7952A
:10095E00E7959F5FC1F7FE2B880F911D96958795A2
:04096E0097F9089558
:100972002FEF83EC99E0215080409040E1F700C0D6
:10098200000041E064E081E00E94750341E062E022
:1009920081E00E94750341E061E081E00E947503FD
:1009A20041E060E081E00E94750341E063E080E0A5
:1009B2000E94750341E062E080E00E94750382E0DC
:1009C2000E9416028FE39CE90197F1F700C0000034
:1009D20088E20E9416028FE99FE00197F1F700C0BA
:1009E20000008EE00E9416028FE99FE00197F1F766
:1009F20000C0000081E00E9416028FE39CE901978B
:100A0200F1F700C0000086E00E9416028FE99FE025
:0A0A12000197F1F700C000000895FD
:100A1C00EF92FF920F931F93CF93DF938A0161158F
:100A2C00710581059105B9F480E3FA018083118287
:100A3C0032C07801EC0EFD1E2AE030E040E050E0C0
:100A4C000E94FB06605DF7016083622F732F842F79
:100A5C00952F219602C0C0E0D0E06115710581058B
:100A6C00910539F7F801EC0FFD1F1082CE010197AB
:100A7C0020E030E00DC0D801A20FB31F4C91F8015B
:100A8C00E80FF91F50815C9340832F5F3F4F019714
:100A9C002817390784F3DF91CF911F910F91FF90A5
:040AAC00EF9008952A
:100AB000E89409C097FB3EF49095809570956195F8
:100AC0007F4F8F4F9F4F9923A9F0F92F96E9BB27AE
:100AD0009395F695879577956795B795F111F8CF2A
:100AE000FAF4BB0F11F460FF1BC06F5F7F4F8F4F95
:100AF0009F4F16C0882311F096E911C0772321F08B
:100B00009EE8872F762F05C0662371F096E8862F22
:100B100070E060E02AF09A95660F771F881FDAF779
:0A0B2000880F9695879597F90895C0
:100B2A00CF93DF93C0E012C08C2F90E00196092E7C
:100B3A00000CAA0B81519F4FAF4FFC016491A7FD96
:100B4A00608141E082E00E947503CF5FC43060F3A8
:100B5A00C0E017C08C2F90E00696092E000CAA0B55
:100B6A0081519F4FAF4FFC01D491A7FDD08140E046
:100B7A006D2F83E00E9475036D2F83E00E94FF05AD
:0C0B8A00CF5FC43038F3DF91CF910895A5
:100B9600813089F028F08230C9F0833011F1089550
:100BA60089B390E002C0959587956A95E2F78170C2
:100BB600FA018083089586B390E002C095958795E3
:100BC6006A95E2F78170FA018083089583B390E015
:100BD60002C0959587956A95E2F78170FA01808340
:100BE600089580B390E002C0959587956A95E2F7DF
:080BF6008170FA01808308956B
:100BFE00813089F028F08230C9F0833011F10895E8
:100C0E002BB381E090E002C0880F991F6A95E2F73E
:100C1E00822B8BBB089528B381E090E002C0880F31
:100C2E00991F6A95E2F7822B88BB089525B381E060
:100C3E0090E002C0880F991F6A95E2F7822B85BB60
:100C4E00089522B381E090E002C0880F991F6A9543
:080C5E00E2F7822B82BB08952E
:100C66000E94E10688F09F5798F0B92F9927B7514F
:100C7600B0F0E1F0660F771F881F991F1AF0BA953A
:100C8600C9F714C0B13091F00E949407B1E00895FD
:100C96000C949407672F782F8827B85F39F0B93FEF
:100CA600CCF3869577956795B395D9F73EF49095ED
:0E0CB6008095709561957F4F8F4F9F4F0895E9
:100CC4000F931F93CF93DF9300D0CDB7DEB78C0182
:100CD400BE016F5F7F4F809171000E941D07698183
:100CE4007A8180E090E00E94580520E030EC4FE7E4
:100CF40054E40E94B90720E030E048EC52E40E943A
:100D0400BD070E943306F801718360830F900F9032
:0A0D1400DF91CF911F910F91089518
:100D1E001F93CF93DF93CDB7DEB764970FB6F894DA
:100D2E00DEBF0FBECDBFAE014F5F5F4F0E940E05FF
:100D3E0010E003C00E948E021F5FE1E0F0E0EC0FB6
:100D4E00FD1FE10FF11D80818111F4CF64960FB666
:100D5E00F894DEBF0FBECDBFDF91CF911F910895E6
:100D6E00813059F028F0823069F0833081F013C061
:100D7E0080E8860F0E9416020EC080EC860F0E943D
:100D8E00160209C084E9860F0E94160204C084ED83
:100D9E00860F0E9416028FE99FE00197F1F700C0BF
:040DAE0000000895A4
:100DB20057FD9058440F551F59F05F3F71F047950A
:100DC200880F97FB991F61F09F3F79F087950895EF
:100DD200121613061406551FF2CF4695F1DF08C00E
:100DE200161617061806991FF1CF8695710561052B
:040DF20008940895C4
:100DF600A1E21A2EAA1BBB1BFD010DC0AA1FBB1F19
:100E0600EE1FFF1FA217B307E407F50720F0A21B8A
:100E1600B30BE40BF50B661F771F881F991F1A94F7
:100E260069F760957095809590959B01AC01BD0121
:040E3600CF0108954B
:100E3A0061157105A9F0803298F497B1907E97B93F
:100E4A0097B1892B87B986B1806486B9349BFECF66
:100E5A0086B1806186B984B195B1FB0191838083A3
:020E6A000895E9
:100E6C00092E0394000C11F4882352F0BB0F40F4AC
:100E7C00BF2B11F460FF04C06F5F7F4F8F4F9F4FEC
:020E8C000895C7
:100E8E0040E060E080E00E94750360917000709118
:100E9E00710080917200909173000E941701089565
:100EAE00CF93DF93EC0103C00E948E0221968881BE
:0A0EBE008111FACFDF91CF91089562
:100EC800992777FD05C005900D920197E1F70895E0
:0A0ED80001900D920197E1F70895D3
:100EE200EC010E94C9070E94C807CE010E94CA07EE
:060EF200CE010E94C607BC
:100EF80081E00E9416028FE39CE90197F1F700C098
:040F08000000089548
:0E0F0C0000240A941616170618060906089502
:0E0F1A0000240A941216130614060506089504
:0E0F2800E894BB2766277727CB0197F9089539
:0C0F360041E061E080E00E947503089536
:0C0F420041E061E080E00E94E2030895BD
:0C0F4E0040E061E080E00E94E2030895B2
:0C0F5A0097F99F6780E870E060E0089560
:0C0F6600EE0FFF1F0590F491E02D0994A0
:080F72000E9406030C943607EF
:080F7A000E944F040C9436079D
:060F82009FEF80EC0895D2
:040F88000C940000C5
:040F8C000E945E0061
:020F90000895C2
:020F92000895C0
:020F94000895BE
:100F96003738392F3435362A3132332D41303D2B0F
:040FA600010000073F
:00000001FF
